:020000040800F2
:100000000028002021130008690F00086F0F000866
:10001000750F00087B0F0008810F0008000000002A
:10002000000000000000000000000000870F000832
:10003000930F0008000000009F0F0008AB0F00089E
:1000400069130008691300086913000869130008A0
:100050006913000869130008691300086913000890
:100060006913000869130008691300086913000880
:100070006913000869130008691300086913000870
:100080006913000869130008691300086913000860
:100090006913000869130008691300086913000850
:1000A0006913000869130008691300086913000840
:1000B000B90F000869130008000000006913000868
:1000C0006913000800000000000000006913000828
:1000D0000000000069130008691300080000000018
:1000E0006913000869130008691300080000000084
:1000F0000000000000000000000000000000000000
:0C01000000000000000000005FF808F1A3
:10010C0010B5054C237833B9044B13B10448AFF345
:10011C0000800123237010BD34000020000000007B
:10012C00082A000808B5034B1BB103490348AFF379
:10013C00008008BD0000000038000020082A0008DC
:10014C0080B500AF80211E4801F018FC0346012B3E
:10015C000BD1002280211A4801F027FC01224FF418
:10016C000071174801F021FC27E04FF4807114480E
:10017C0001F004FC0346012B0BD100224FF48071DB
:10018C000F4801F012FC012280210D4801F00DFCFA
:10019C0013E04FF400710A4801F0F0FB0346012B09
:1001AC000BD100224FF40071054801F0FEFB012237
:1001BC004FF48071024801F0F8FB00BF80BD00BF16
:1001CC000008014080B500AF4FF480611E4801F07B
:1001DC00D5FB0346012B0CD100224FF480611A4849
:1001EC0001F0E3FB01224FF48051174801F0DDFBD5
:1001FC0028E04FF40061144801F0C0FB0346012BCA
:10020C000CD100224FF400610F4801F0CEFB01220B
:10021C004FF480610C4801F0C8FB13E04FF480519F
:10022C00094801F0ABFB0346012B0BD100224FF424
:10023C008051054801F0B9FB01224FF400610248DE
:10024C0001F0B3FB00BF80BD0008014080B58AB04F
:10025C0000AFF860B9607A6001228021714801F02A
:10026C00A4FB01224FF480516E4801F09EFBFB6809
:10027C007B627B683B6229E00023FB611DE0396AED
:10028C00786A00F0C7FC002000F0A6FA0346002BA9
:10029C0010D0654B1B68012B03DD644B00221A60E8
:1002AC0005E0624B01221A605F4B02221A6000F0DB
:1002BC00B7FEB4E0FB690133FB61FB69072BDEDDA4
:1002CC003B6A013B3B627B6A013B7B623B6A002BD6
:1002DC00D2D1FFF777FFBB683B6229E00023BB61FB
:1002EC001DE0396A786A00F095FC002000F074FA81
:1002FC000346002B10D04C4B1B68012B03DD4B4BE2
:10030C0000221A6005E0494B01221A60464B02227A
:10031C001A6000F085FE82E0BB690133BB61BB69EA
:10032C00072BDEDD3B6A013B3B627B6A013B7B6258
:10033C003B6A002BD2D1FFF745FFFFF701FF7B682B
:10034C007B62FB683B6229E000237B611DE0396A1C
:10035C00786A00F05FFC002000F03EFA0346002BA8
:10036C0010D0314B1B68012B03DD304B00221A607F
:10037C0005E02E4B01221A602B4B02221A6000F072
:10038C004FFE4CE07B6901337B617B69072BDEDD23
:10039C003B6A013B3B627B6A013B7B627B6A002BC5
:1003AC00D2D1FFF7CDFEBB687B6229E000233B6115
:1003BC001DE0396A786A00F02DFC002000F00CFA80
:1003CC000346002B10D0184B1B68012B03DD174B79
:1003DC0000221A6005E0154B01221A60124B022212
:1003EC001A6000F01DFE1AE03B6901333B613B696A
:1003FC00072BDEDD3B6A013B3B627B6A013B7B6288
:10040C007B6A002BD2D100224FF48071054801F099
:10041C00CCFA00224FF48061024801F0C6FA28376A
:10042C00BD4680BD000801401400002000000020E3
:10043C0080B500AF224B1B78022B29D0022B3CDC61
:10044C00002B02D0012B0FD037E0002000F056FA21
:10045C000346002B2ED01A4B01221A70194B1B6825
:10046C000133184A136025E0002000F047FA0346D8
:10047C00002B03D1124B00221A701DE0002000F05B
:10048C0057FA0346002B17D00D4B02221A7013E0BB
:10049C00002000F033FA0346002B02D1084B002257
:1004AC001A70084B1B680133064A1360322000F0A7
:1004BC00B9FF02E000BF00E000BF00BF80BD00BF7D
:1004CC00510000205400002080B500AF224B1B7857
:1004DC00022B32D0022B3DDC002B02D0012B18D08A
:1004EC0038E0002000F09CFA0346002B06D01A4B93
:1004FC0001221A70194B00221A602BE0FFF798FFAB
:10050C00174B1B68174A12681146184600F082FBFD
:10051C0020E0002000F084FA0346002B03D10E4BA0
:10052C0000221A7013E0002000F094FA0346002B0E
:10053C000DD0094B02221A7009E0002000F070FA6D
:10054C000346002B05D1044B00221A7001E000BFBA
:10055C0000E000BF80BD00BF520000201000002052
:10056C00540000200000002080B500AF644B1B78C5
:10057C00022B00F0B480022B00F3C080002B03D0C0
:10058C00012B00F09880B9E0002000F025F903461B
:10059C00002B29D05A4B01221A705A4B1B6801337D
:1005AC00584A1360574B1B68042B02D1554B002241
:1005BC001A60544B1B68012B02D100F031FD13E083
:1005CC00504B1B68022B04D100F062FD00F07CFD47
:1005DC000AE04C4B1B68032B04D100F0ADFD00F07E
:1005EC00C7FD01E000F0FCFD464B1B68002B09D158
:1005FC00454B1B68454A1168454A12681846FFF777
:10060C0025FE76E03F4B1B68012B1AD1414B012292
:10061C001A6001E0FFF758FF3E4B1B68012BF9D025
:10062C003D4B1B68384A13603B4B00221A60354B1C
:10063C001B680133334A136000F02AFD00F044FDBF
:10064C0057E0304B1B68022B1AD1324B01221A6037
:10065C0001E0FFF739FF2F4B1B68012BF9D02E4B14
:10066C001B682A4A13602C4B00221A60254B1B680E
:10067C000133244A136000F05FFD00F079FD38E08F
:10068C00204B1B68032B34D1224B01221A6001E052
:10069C00FFF71AFF1F4B1B68012BF9D01E4B1B6871
:1006AC001B4A13601C4B00221A60164B00221A6066
:1006BC0000F096FD1DE0002000F08EF80346002BA4
:1006CC0003D10F4B00221A7015E0002000F09EF8A9
:1006DC000346002B0FD00A4B02221A700BE00020AD
:1006EC0000F07AF80346002B07D1054B00221A7054
:1006FC0003E000BF02E000BF00E000BF00BF80BD10
:10070C005000002000000020040000200800002001
:10071C000C000020100000205400002090B583B085
:10072C0000AF0023FB7142E0FA79FB792449895C24
:10073C00244AD154FC790121234801F01FF90346C6
:10074C001A461F4B1A55FB791D4AD25CFB791D4981
:10075C00CB5C9A4205D1FA79FB791949895C1B4A21
:10076C00D154FB79194AD35C002B14D1FB79184A6C
:10077C0032F81330092B09D8FB79154A32F81320BB
:10078C00013291B2124A22F813100DE0FB79114A92
:10079C000121D15408E0FB790D4A002122F81310F5
:1007AC00FB790C4A0021D154FB790133FB71FB79A5
:1007BC00002BB9D000BF00BF0C37BD4690BD00BFA9
:1007CC006400002068000020000C0140580000204C
:1007DC00880000207C00002080B483B000AF03466A
:1007EC00FB71FB79002B01D0002307E0FB79064A53
:1007FC00D35C002B0CBF01230023DBB218460C3753
:10080C00BD4680BC704700BF5800002080B483B048
:10081C0000AF0346FB71FB79002B01D0FF2307E0EF
:10082C00FB79064AD35C012B0CBF01230023DBB2FE
:10083C0018460C37BD4680BC704700BF7C000020BA
:10084C0090B583B000AF0023FB7142E0FA79FB79DD
:10085C002449895C244AD154FC790221234801F0B3
:10086C008DF803461A461F4B1A55FB791D4AD25C6C
:10087C00FB791D49CB5C9A4205D1FA79FB79194970
:10088C00895C1B4AD154FB79194AD35C002B14D1D7
:10089C00FB79184A32F81330092B09D8FB79154A21
:1008AC0032F81320013291B2124A22F813100DE0E3
:1008BC00FB79114A0121D15408E0FB790D4A002142
:1008CC0022F81310FB790C4A0021D154FB79013327
:1008DC00FB71FB79002BB9D000BF00BF0C37BD46B4
:1008EC0090BD00BF6C00002070000020000C014087
:1008FC005C0000208C0000208000002080B483B0BD
:10090C0000AF0346FB71FB79002B01D0002307E0FD
:10091C00FB79064AD35C002B0CBF01230023DBB20E
:10092C0018460C37BD4680BC704700BF5C000020E9
:10093C0080B483B000AF0346FB71FB79002B01D070
:10094C00FF2307E0FB79064AD35C012B0CBF012384
:10095C000023DBB218460C37BD4680BC704700BF85
:10096C008000002090B583B000AF0023FB7142E003
:10097C00FA79FB792449895C244AD154FC79042105
:10098C00234800F0FBFF03461A461F4B1A55FB7910
:10099C001D4AD25CFB791D49CB5C9A4205D1FA7990
:1009AC00FB791949895C1B4AD154FB79194AD35CF0
:1009BC00002B14D1FB79184A32F81330092B09D8C3
:1009CC00FB79154A32F81320013291B2124A22F8FF
:1009DC0013100DE0FB79114A0121D15408E0FB7989
:1009EC000D4A002122F81310FB790C4A0021D15436
:1009FC00FB790133FB71FB79002BB9D000BF00BF31
:100A0C000C37BD4690BD00BF74000020780000205C
:100A1C00000C0140600000209000002084000020A9
:100A2C0080B483B000AF0346FB71FB79002B01D07F
:100A3C00002307E0FB79064AD35C002B0CBF012393
:100A4C000023DBB218460C37BD4680BC704700BF94
:100A5C006000002080B483B000AF0346FB71FB79CB
:100A6C00002B01D0FF2307E0FB79064AD35C012B56
:100A7C000CBF01230023DBB218460C37BD4680BCEB
:100A8C00704700BF8400002080B584B000AF786050
:100A9C00234A7B6813441B78FB73FB7B03F0010335
:100AAC00DBB21A4640211F4800F07FFFFB7B03F0AE
:100ABC000203DBB21A4620211A4800F076FFFB7BBA
:100ACC0003F00403DBB21A461021164800F06DFF48
:100ADC00FB7B03F00803DBB21A460821114800F037
:100AEC0064FFFB7B03F01003DBB21A4604210D48B4
:100AFC0000F05BFFFB7B03F02003DBB21A46022104
:100B0C00084800F052FFFB7B03F04003DBB21A46AF
:100B1C000121044800F049FF00BF1037BD4680BDDD
:100B2C00180000200008014080B582B000AF78604A
:100B3C007B68002B0BD1002220211A4800F035FFD6
:100B4C0001224FF48071174800F02FFF26E07B68DC
:100B5C00012B0AD101222021124800F026FF00228D
:100B6C004021104800F021FF18E07B68022B0AD1CD
:100B7C00012240210B4800F018FF00228021094877
:100B8C0000F013FF0AE001228021064800F00DFF5F
:100B9C0000224FF48071034800F007FF00BF0837B4
:100BAC00BD4680BD000C014080B582B000AF7860BE
:100BBC0039607B68032B27D801A252F823F000BFC1
:100BCC00DD0B0008EB0B0008F90B0008070C000804
:100BDC000020FFF7A9FF3868FFF756FF15E001204A
:100BEC00FFF7A2FF3868FFF74FFF0EE00220FFF778
:100BFC009BFF3868FFF748FF07E00320FFF794FFDF
:100C0C003868FFF741FF00E000BF00BF0837BD4662
:100C1C0080BD00BF80B582B000AF786039607B6862
:100C2C00214A82FB03129210DB17D31A19460020BB
:100C3C00FFF7BAFF462000F0F5FB7A681A4B83FBEE
:100C4C0002139910D317C91A0B469B000B445B0077
:100C5C00D11A0120FFF7A8FF462000F0E3FB3B6808
:100C6C00114A82FB03129210DB17D31A1946022089
:100C7C00FFF79AFF462000F0D5FB3A680A4B83FB3E
:100C8C0002139910D317C91A0B469B000B445B0037
:100C9C00D11A0320FFF788FF462000F0C3FB00BFEA
:100CAC000837BD4680BD00BF6766666680B500AF7D
:100CBC0000F056FB00F00CF800F092F800F044F84D
:100CCC00024801F0DBFAFFF74FFCFCE7A80000201C
:100CDC0080B590B000AF07F1180328220021184608
:100CEC0001F084FE3B1D00221A605A609A60DA60A3
:100CFC001A610223BB610123BB621023FB62002338
:100D0C007B6307F11803184600F080FE0346002BA6
:100D1C0001D000F0C7F80F237B600023BB600023D9
:100D2C00FB6000233B6100237B613B1D00211846C7
:100D3C0001F0ECF80346002B01D000F0B3F800BF33
:100D4C004037BD4680BD000080B586B000AF07F1CE
:100D5C00080300221A605A609A60DA603B4600224F
:100D6C001A605A601D4B4FF080421A601B4B41F6C3
:100D7C003F725A60194B00229A60184B6322DA605A
:100D8C00164B00221A61154B00229A61134801F090
:100D9C0025FA0346002B01D000F084F84FF4805361
:100DAC00BB6007F1080319460C4801F0BBFB034676
:100DBC00002B01D000F076F800233B6000237B6011
:100DCC003B461946054801F083FD0346002B01D034
:100DDC0000F068F800BF1837BD4680BDA8000020A1
:100DEC0080B586B000AF07F1080300221A605A6084
:100DFC009A60DA60284B9B69274A43F0040393619D
:100E0C00254B9B6903F004037B607B68224B9B6939
:100E1C00214A43F0080393611F4B9B6903F00803BD
:100E2C003B603B68002241F6FF711C4800F0BDFDA1
:100E3C0000224FF4F0711A4800F0B7FD41F6FF7331
:100E4C00BB600123FB6000233B6102237B6107F144
:100E5C0008031946114800F017FC0723BB60002358
:100E6C00FB6000233B6107F1080319460C4800F0B6
:100E7C000BFC4FF4F073BB600123FB6000233B6160
:100E8C0002237B6107F108031946054800F0FCFBBF
:100E9C0000BF1837BD4680BD00100240000801405D
:100EAC00000C014080B400AF72B600BFFEE700003A
:100EBC0080B485B000AF154B9B69144A43F0010315
:100ECC009361124B9B6903F00103BB60BB680F4B32
:100EDC00DB690E4A43F08053D3610C4BDB6903F0A2
:100EEC0080537B607B680A4B5B68FB60FB6823F07C
:100EFC00E063FB60FB6843F08063FB60044AFB68C3
:100F0C00536000BF1437BD4680BC704700100240D0
:100F1C000000014080B584B000AF78607B681B682E
:100F2C00B3F1804F13D10C4BDB690B4A43F0010337
:100F3C00D361094BDB6903F00103FB60FB68002202
:100F4C0000211C2000F069FB1C2000F082FB00BF7C
:100F5C001037BD4680BD00BF0010024080B400AF0A
:100F6C00FEE780B400AFFEE780B400AFFEE780B4CC
:100F7C0000AFFEE780B400AFFEE780B400AF00BF67
:100F8C00BD4680BC704780B400AF00BFBD4680BC7E
:100F9C00704780B400AF00BFBD4680BC704780B5C1
:100FAC0000AF00F023FA00BF80BD000080B500AF99
:100FBC00024801F0AFF900BF80BD00BFA8000020BF
:100FCC0080B400AF00BFBD4680BC704780B487B012
:100FDC0000AF78607B681B68DB6A7B617B681B6891
:100FEC009B6A3B617B693A6902FB03F3094AB2FBDA
:100FFC00F3F3FB60FB68322202FB03F3064AA2FB0D
:10100C0003235B09054A136000BF1C37BD4680BC37
:10101C00704700BF00127A001F85EB51980000202A
:10102C0080B500AF164B01221A60164B00221A60D5
:10103C00154B00221A6001228021144800F0B5FCE7
:10104C0001224FF48061114800F0AFFC00224FF4F4
:10105C0080710E4800F0A9FC00224FF400610B488F
:10106C0000F0A3FC00224FF40071084800F09DFC36
:10107C0000224FF48051054800F097FC00BF80BD62
:10108C009C000020A0000020A400002000080140CB
:10109C0080B500AF00228021084800F086FC0022B9
:1010AC004FF48061054800F080FC054B00221A606B
:1010BC00044B00221A6000BF80BD00BF0008014035
:1010CC00940000209C00002080B500AF164B00223D
:1010DC001A60164B01221A60154B00221A6001226D
:1010EC004FF48071134800F060FC01224FF4006152
:1010FC00104800F05AFC002280210E4800F055FCEC
:10110C0000224FF480610B4800F04FFC00224FF49A
:10111C000071084800F049FC00224FF4805105484A
:10112C0000F043FC00BF80BD9C000020A00000200C
:10113C00A40000200008014080B500AF00224FF44D
:10114C008071084800F031FC00224FF40061054822
:10115C0000F02BFC044B00221A60044B00221A6096
:10116C0000BF80BD0008014094000020A0000020BA
:10117C0080B500AF164B00221A60164B00221A6085
:10118C00154B01221A6001224FF40071134800F034
:10119C000CFC01224FF48051104800F006FC002298
:1011AC0080210E4800F001FC00224FF480610B48B6
:1011BC0000F0FBFB00224FF48071084800F0F5FBB7
:1011CC0000224FF40061054800F0EFFB00BF80BD2A
:1011DC009C000020A0000020A4000020000801407A
:1011EC0080B500AF00224FF40071084800F0DDFB21
:1011FC0000224FF48051054800F0D7FB044B00222D
:10120C001A60044B00221A6000BF80BD0008014028
:10121C0094000020A400002080B582B000AF78605C
:10122C007B681B68B3F1804F62D1334B1B68012B79
:10123C0005D17868FFF7CAFE2F4B00221A60FFF722
:10124C006DFAFFF7FDFAFFF78DFB2C4B1B68012B9A
:10125C0016D12B4B1B680133294A1360284B1A6893
:10126C00284B1B689A420BD18021274800F0B5FB14
:10127C004FF48061244800F0B0FB214B00221A602F
:10128C00224B1B68012B17D11D4B1B6801331C4AC9
:10129C0013601B4B1A681B4B1B689A420CD14FF402
:1012AC008071194800F099FB4FF40061164800F06A
:1012BC0094FB134B00221A60154B1B68012B17D1A2
:1012CC000F4B1B6801330E4A13600D4B1A680D4B04
:1012DC001B689A420CD14FF400710B4800F07DFB57
:1012EC004FF48051084800F078FB054B00221A603F
:1012FC0000BF0837BD4680BD280000209C000020A0
:10130C00940000209800002000080140A00000205C
:10131C00A40000200C480D490D4A002302E0D458CB
:10132C00C4500433C4188C42F9D30A4A0A4C002323
:10133C0001E013600432A242FBD3FFF741FE01F03F
:10134C0031FBFFF7B3FC7047000000203400002095
:10135C00482A000834000020F4000020FEE70000BA
:10136C0080B500AF084B1B68074A43F010031360AD
:10137C00032000F047F90F2000F008F8FFF798FD64
:10138C000023184680BD00BF0020024080B582B00B
:10139C0000AF7860124B1A68124B1B7819464FF449
:1013AC007A73B3FBF1F3B2FBF3F3184600F05FF979
:1013BC000346002B01D001230EE07B680F2B0AD8CB
:1013CC00002279684FF0FF3000F027F9064A7B685D
:1013DC001360002300E0012318460837BD4680BD8A
:1013EC0024000020300000202C00002080B400AF2E
:1013FC00054B1B781A46054B1B681344034A1360B4
:10140C0000BFBD4680BC704730000020F0000020BB
:10141C0080B400AF024B1B681846BD4680BC7047B9
:10142C00F000002080B584B000AF7860FFF7F0FFCB
:10143C00B8607B68FB60FB68B3F1FF3F05D00A4BDB
:10144C001B781A46FB681344FB6000BFFFF7E0FFF4
:10145C000246BB68D31AFA689A42F7D800BF00BF9D
:10146C001037BD4680BD00BF3000002080B485B071
:10147C0000AF78607B6803F00703FB600C4BDB6804
:10148C00BB60BA684FF6FF031340BB60FB681A02DF
:10149C00BB68134343F0BF6343F40033BB60044A9F
:1014AC00BB68D36000BF1437BD4680BC704700BF1B
:1014BC0000ED00E080B400AF044BDB681B0A03F0C6
:1014CC0007031846BD4680BC704700BF00ED00E026
:1014DC0080B483B000AF0346FB7197F90730002B43
:1014EC000BDBFB7903F01F02064997F907305B0908
:1014FC00012000FA02F241F8232000BF0C37BD4650
:10150C0080BC704700E100E080B483B000AF0346BC
:10151C003960FB7197F90730002B0ADB3B68DAB2B4
:10152C000C4997F907301201D2B20B4483F800230F
:10153C000AE03B68DAB20849FB7903F00F03043B7D
:10154C001201D2B20B441A7600BF0C37BD4680BCD8
:10155C00704700BF00E100E000ED00E080B489B00E
:10156C0000AFF860B9607A60FB6803F00703FB61B9
:10157C00FB69C3F10703042B28BF0423BB61FB6980
:10158C000433062B02D9FB69033B00E000237B618B
:10159C004FF0FF32BB6902FA03F3DA43BB681A401F
:1015AC007B699A404FF0FF317B6901FA03F3D94311
:1015BC007B680B40134318462437BD4680BC7047EC
:1015CC0080B582B000AF78607B68013BB3F1807F5F
:1015DC0001D301230FE00A4A7B68013B53600F21C2
:1015EC004FF0FF30FFF790FF054B00229A60044B41
:1015FC0007221A60002318460837BD4680BD00BF7D
:10160C0010E000E080B582B000AF78607868FFF73A
:10161C002DFF00BF0837BD4680BD80B586B000AF3A
:10162C000346B9607A60FB7300237B61FFF742FFCE
:10163C0078617A68B9687869FFF790FF024697F984
:10164C000F3011461846FFF75FFF00BF1837BD4635
:10165C0080BD80B582B000AF0346FB7197F90730AF
:10166C001846FFF735FF00BF0837BD4680BD80B573
:10167C0082B000AF78607868FFF7A2FF0346184687
:10168C000837BD4680BD000080B48BB000AF7860D9
:10169C00396000237B6200233B6248E101227B6AB4
:1016AC0002FA03F3FB613B681B68FA691340BB61E8
:1016BC00BA69FB699A4240F037813B685B68A34A80
:1016CC0093425ED0A14A934275D8A14A934258D016
:1016DC009F4A93426FD89F4A934252D09D4A93425D
:1016EC0069D89D4A93424CD09B4A934263D89B4AFB
:1016FC00934246D0994A93425DD8122B2AD8122B8A
:10170C0059D801A252F823F08F1700086917000866
:10171C007B170008BD170008C3170008C317000883
:10172C00C3170008C3170008C3170008C317000825
:10173C00C3170008C3170008C3170008C317000815
:10174C00C3170008C3170008C31700087117000857
:10175C0085170008824A934213D02CE03B68DB6863
:10176C003B6229E03B68DB6804333B6224E03B6866
:10177C00DB6808333B621FE03B68DB680C333B6281
:10178C001AE03B689B68002B02D104233B6213E0F8
:10179C003B689B68012B05D108233B627B68FA6987
:1017AC001A6109E008233B627B68FA695A6103E01D
:1017BC0000233B6200E000BFBB69FF2B01D87B68B4
:1017CC0001E07B6804337B61BB69FF2B02D87B6A29
:1017DC009B0002E07B6A083B9B003B617B691A68BB
:1017EC000F213B6901FA03F3DB431A40396A3B6969
:1017FC0001FA03F31A437B691A603B685B6803F0D8
:10180C008053002B00F09080564B9B69554A43F057
:10181C0001039361534B9B6903F00103BB60BB68ED
:10182C00514A7B6A9B08023352F82330FB607B6A77
:10183C0003F003039B000F2202FA03F3DB43FA6865
:10184C001340FB607B68494A93420DD07B68484A41
:10185C00934207D07B68474A934201D1022304E0AC
:10186C00032302E0012300E000237A6A02F0030262
:10187C0092009340FA681343FB603B497B6A9B08D8
:10188C000233FA6841F823203B685B6803F4803329
:10189C00002B06D0384B1A683749BB6913430B60D1
:1018AC0006E0354B1A68BB69DB43334913400B60C8
:1018BC003B685B6803F40033002B06D02E4B5A6850
:1018CC002D49BB6913434B6006E02B4B5A68BB692F
:1018DC00DB43294913404B603B685B6803F480137E
:1018EC00002B06D0244B9A682349BB6913438B60A9
:1018FC0006E0214B9A68BB69DB431F4913408B60A0
:10190C003B685B6803F40013002B06D01A4BDA68B3
:10191C001949BB691343CB6006E0174BDA68BB6906
:10192C00DB4315491340CB607B6A01337B623B6818
:10193C001A687B6A22FA03F3002B7FF4AFAE00BF68
:10194C0000BF2C37BD4680BC704700BF0000321072
:10195C0000003110000022100000211000001210B5
:10196C00000011100010024000000140000801406E
:10197C00000C0140001001400004014080B485B00F
:10198C0000AF78600B467B807B689A687B8813403D
:10199C00002B02D00123FB7301E00023FB73FB7BC4
:1019AC0018461437BD4680BC704780B483B000AF76
:1019BC0078600B467B8013467B707B78002B03D0C2
:1019CC007A887B681A6103E07B881A047B681A6149
:1019DC0000BF0C37BD4680BC704780B485B000AFEB
:1019EC0078600B467B807B68DB68FB607A88FB68E1
:1019FC0013401A04FB68D9437B880B401A437B685D
:101A0C001A6100BF1437BD4680BC704780B586B0E4
:101A1C0000AF78607B68002B01D101236CE27B68FE
:101A2C001B6803F00103002B00F08780924B5B686E
:101A3C0003F00C03042B0CD08F4B5B6803F00C03EE
:101A4C00082B12D18C4B5B6803F48033B3F5803FC9
:101A5C000BD1894B1B6803F40033002B6CD07B68D3
:101A6C005B68002B68D1012346E27B685B68B3F5A9
:101A7C00803F06D1804B1B687F4A43F48033136050
:101A8C002EE07B685B68002B0CD17B4B1B687A4A81
:101A9C0023F480331360784B1B68774A23F480233C
:101AAC0013601DE07B685B68B3F5A02F0CD1724B03
:101ABC001B68714A43F4802313606F4B1B686E4A9A
:101ACC0043F4803313600BE06B4B1B686A4A23F4BE
:101ADC0080331360684B1B68674A23F480231360C0
:101AEC007B685B68002B13D0FFF792FC386108E031
:101AFC00FFF78EFC02463B69D31A642B01D90323F2
:101B0C00FAE15D4B1B6803F40033002BF0D014E0BA
:101B1C00FFF77EFC386108E0FFF77AFC02463B6970
:101B2C00D31A642B01D90323E6E1534B1B6803F44E
:101B3C000033002BF0D100E000BF7B681B6803F082
:101B4C000203002B63D04C4B5B6803F00C03002B9F
:101B5C000BD0494B5B6803F00C03082B1CD1464B94
:101B6C005B6803F48033002B16D1434B1B6803F0E6
:101B7C000203002B05D07B681B69012B01D00123CC
:101B8C00BAE13D4B1B6823F0F8027B685B69DB0014
:101B9C00394913430B603AE07B681B69002B20D05A
:101BAC00364B01221A60FFF733FC386108E0FFF76F
:101BBC002FFC02463B69D31A022B01D903239BE16C
:101BCC002D4B1B6803F00203002BF0D02A4B1B6833
:101BDC0023F0F8027B685B69DB00274913430B6039
:101BEC0015E0264B00221A60FFF712FC386108E062
:101BFC00FFF70EFC02463B69D31A022B01D90323D3
:101C0C007AE11D4B1B6803F00203002BF0D17B68BB
:101C1C001B6803F00803002B3AD07B689B69002BF0
:101C2C0019D0174B01221A60FFF7F2FB386108E05C
:101C3C00FFF7EEFB02463B69D31A022B01D90323B3
:101C4C005AE10D4B5B6A03F00203002BF0D001202C
:101C5C0000F0A6FA1CE00A4B00221A60FFF7D8FB32
:101C6C0038610FE0FFF7D4FB02463B69D31A022B15
:101C7C0008D9032340E100BF00100240000042429B
:101C8C00800442429E4B5B6A03F00203002BE9D1B5
:101C9C007B681B6803F00403002B00F0A680002374
:101CAC00FB75974BDB6903F08053002B0DD1944BE4
:101CBC00DB69934A43F08053D361914BDB6903F0AA
:101CCC008053BB60BB680123FB758E4B1B6803F410
:101CDC008073002B18D18B4B1B688A4A43F480739A
:101CEC001360FFF795FB386108E0FFF791FB0246A4
:101CFC003B69D31A642B01D90323FDE0814B1B688C
:101D0C0003F48073002BF0D07B68DB68012B06D1C9
:101D1C007B4B1B6A7A4A43F0010313622DE07B680C
:101D2C00DB68002B0CD1764B1B6A754A23F0010340
:101D3C001362734B1B6A724A23F0040313621CE098
:101D4C007B68DB68052B0CD16D4B1B6A6C4A43F02E
:101D5C00040313626A4B1B6A694A43F00103136262
:101D6C000BE0674B1B6A664A23F001031362644B5A
:101D7C001B6A634A23F0040313627B68DB68002B45
:101D8C0015D0FFF745FB38610AE0FFF741FB02462F
:101D9C003B69D31A41F28832934201D90323ABE059
:101DAC00574B1B6A03F00203002BEED014E0FFF735
:101DBC002FFB38610AE0FFF72BFB02463B69D31A75
:101DCC0041F28832934201D9032395E04C4B1B6AB4
:101DDC0003F00203002BEED1FB7D012B05D1484B08
:101DEC00DB69474A23F08053D3617B68DB69002BA6
:101DFC0000F08180424B5B6803F00C03082B61D030
:101E0C007B68DB69022B46D13F4B00221A60FFF73F
:101E1C00FFFA386108E0FFF7FBFA02463B69D31A78
:101E2C00022B01D9032367E0354B1B6803F00073C9
:101E3C00002BF0D17B681B6AB3F5803F08D1304B87
:101E4C005B6823F400327B689B682D4913434B601D
:101E5C002B4B5B6823F474127B68196A7B685B6A92
:101E6C000B43274913434B60274B01221A60FFF7A2
:101E7C00CFFA386108E0FFF7CBFA02463B69D31A78
:101E8C00022B01D9032337E01D4B1B6803F00073B1
:101E9C00002BF0D02FE01C4B00221A60FFF7B8FA91
:101EAC00386108E0FFF7B4FA02463B69D31A022BFB
:101EBC0001D9032320E0124B1B6803F00073002BA5
:101ECC00F0D118E07B68DB69012B01D1012313E011
:101EDC000B4B5B68FB60FB6803F480327B681B6A0E
:101EEC009A4206D1FB6803F470127B685B6A9A42D3
:101EFC0001D0012300E0002318461837BD4680BDF1
:101F0C0000100240007000406000424280B584B076
:101F1C0000AF786039607B68002B01D10123D0E0E1
:101F2C006A4B1B6803F007033A689A4210D9674B57
:101F3C001B6823F0070265493B6813430B60634B36
:101F4C001B6803F007033A689A4201D00123B8E0FA
:101F5C007B681B6803F00203002B20D07B681B6896
:101F6C0003F00403002B05D0594B5B68584A43F42B
:101F7C00E06353607B681B6803F00803002B05D0FB
:101F8C00534B5B68524A43F460535360504B5B684D
:101F9C0023F0F0027B689B684D4913434B607B68D0
:101FAC001B6803F00103002B40D07B685B68012B9E
:101FBC0007D1474B1B6803F40033002B15D10123C9
:101FCC007FE07B685B68022B07D1414B1B6803F0F9
:101FDC000073002B09D1012373E03D4B1B6803F008
:101FEC000203002B01D101236BE0394B5B6823F01A
:101FFC0003027B685B68364913434B60FFF708FAB2
:10200C00F8600AE0FFF704FA0246FB68D31A41F2C3
:10201C008832934201D9032353E02D4B5B6803F0C4
:10202C000C027B685B689B009A42EBD1274B1B68C8
:10203C0003F007033A689A4210D2244B1B6823F032
:10204C00070222493B6813430B60204B1B6803F0CB
:10205C0007033A689A4201D0012332E07B681B687F
:10206C0003F00403002B08D0194B5B6823F4E062E7
:10207C007B68DB68164913434B607B681B6803F075
:10208C000803002B09D0124B5B6823F460527B6869
:10209C001B69DB000E4913434B6000F021F802462C
:1020AC000B4B5B681B0903F00F030A49CB5C22FA4C
:1020BC0003F3094A1360094B1B681846FFF766F9CE
:1020CC00002318461037BD4680BD00BF00200240DB
:1020DC0000100240302A0008240000202C000020B0
:1020EC0090B48AB000AF2A4B3C1D0FCB84E80F0094
:1020FC0040F201233B800023FB610023BB610023E2
:10210C007B6200237B6100233B62224B5B68FB619B
:10211C00FB6903F00C03042B02D0082B03D02DE039
:10212C001D4B3B622DE0FB699B0C03F00F0307F189
:10213C002802134413F8243C7B61FB6903F48033BD
:10214C00002B13D0134B5B685B0C03F0010307F1FE
:10215C002802134413F8283CBB617B690E4A02FB2E
:10216C0003F2BB69B2FBF3F37B6204E07B690B4ABD
:10217C0002FB03F37B627B6A3B6202E0064B3B6231
:10218C0000BF3B6A18462837BD4690BC704700BF5D
:10219C00202A00080010024000127A0000093D00BD
:1021AC0080B485B000AF78600A4B1B680A4AA2FB6A
:1021BC0003235B0A7A6802FB03F3FB6000BFFB6836
:1021CC005A1EFA60002BF9D100BF00BF1437BD4670
:1021DC0080BC704724000020D34D621080B582B0C3
:1021EC0000AF78607B68002B01D1012341E07B6854
:1021FC0093F83D30DBB2002B06D17B68002283F8CC
:10220C003C207868FEF786FE7B68022283F83D202E
:10221C007B681A687B6804331946104600F06AFA2A
:10222C007B68012283F846207B68012283F83E20DC
:10223C007B68012283F83F207B68012283F84020D1
:10224C007B68012283F841207B68012283F84220BD
:10225C007B68012283F843207B68012283F84420A9
:10226C007B68012283F845207B68012283F83D209E
:10227C00002318460837BD4680BD000080B485B0E9
:10228C0000AF78607B6893F83D30DBB2012B01D056
:10229C00012335E07B68022283F83D207B681B68B4
:1022AC00DA687B681B6842F00102DA607B681B68A5
:1022BC00164A934209D07B681B68B3F1804F04D057
:1022CC007B681B68124A934211D17B681B689B6820
:1022DC0003F00703FB60FB68062B10D07B681B68C0
:1022EC001A687B681B6842F001021A6007E07B6881
:1022FC001B681A687B681B6842F001021A60002395
:10230C0018461437BD4680BC704700BF002C0140F6
:10231C000004004080B582B000AF78607B681B6819
:10232C001B6903F00203022B22D17B681B68DB685C
:10233C0003F00203022B1BD17B681B686FF00202B7
:10234C001A617B6801221A777B681B689B6903F012
:10235C000303002B03D0786800F0B1F905E078682E
:10236C0000F0A4F9786800F0B3F97B6800221A77C2
:10237C007B681B681B6903F00403042B22D17B6868
:10238C001B68DB6803F00403042B1BD17B681B6800
:10239C006FF004021A617B6802221A777B681B6853
:1023AC009B6903F44073002B03D0786800F087F925
:1023BC0005E0786800F07AF9786800F089F97B68B4
:1023CC0000221A777B681B681B6903F00803082B33
:1023DC0022D17B681B68DB6803F00803082B1BD138
:1023EC007B681B686FF008021A617B6804221A77FD
:1023FC007B681B68DB6903F00303002B03D0786850
:10240C0000F05DF905E0786800F050F9786800F0AC
:10241C005FF97B6800221A777B681B681B6903F0E5
:10242C001003102B22D17B681B68DB6803F01003B0
:10243C00102B1BD17B681B686FF010021A617B6834
:10244C0008221A777B681B68DB6903F44073002B46
:10245C0003D0786800F033F905E0786800F026F9CD
:10246C00786800F035F97B6800221A777B681B6866
:10247C001B6903F00103012B0ED17B681B68DB6821
:10248C0003F00103012B07D17B681B686FF001027D
:10249C001A617868FEF7C0FE7B681B681B6903F045
:1024AC008003802B0ED17B681B68DB6803F08003F4
:1024BC00802B07D17B681B686FF080021A617868EB
:1024CC0000F067FA7B681B681B6903F04003402B24
:1024DC000ED17B681B68DB6803F04003402B07D1EF
:1024EC007B681B686FF040021A61786800F0F9F89D
:1024FC007B681B681B6903F02003202B0ED17B68C3
:10250C001B68DB6803F02003202B07D17B681B685A
:10251C006FF020021A61786800F032FA00BF0837B9
:10252C00BD4680BD80B584B000AF786039607B68F3
:10253C0093F83C30012B01D10223B3E07B680122DC
:10254C0083F83C207B68022283F83D207B681B6863
:10255C009B68FB60FB6823F07703FB60FB6823F44C
:10256C007F43FB607B681B68FA689A603B681B685A
:10257C00B3F5005F3ED0B3F5005F00F28780B3F592
:10258C00805F00F08580B3F5805F7FD8702B1AD008
:10259C00702B7BD8602B50D0602B77D8502B3CD035
:1025AC00502B73D8402B58D0402B6FD8302B64D085
:1025BC00302B6BD8202B60D0202B67D8002B5CD015
:1025CC00102B5AD062E07B6818683B6899683B68AE
:1025DC005A683B68DB6800F05CF97B681B689B6899
:1025EC00FB60FB6843F07703FB607B681B68FA6851
:1025FC009A604EE07B6818683B6899683B685A683B
:10260C003B68DB6800F045F97B681B689A687B685F
:10261C001B6842F480429A603BE07B6818683B6818
:10262C0059683B68DB681A4600F0BCF87B681B688D
:10263C005021184600F013F92BE07B6818683B68B2
:10264C0059683B68DB681A4600F0DAF87B681B684F
:10265C006021184600F003F91BE07B6818683B68A2
:10266C0059683B68DB681A4600F09CF87B681B686D
:10267C004021184600F0F3F80BE07B681A683B68C1
:10268C001B681946104600F0EAF802E000BF00E0B3
:10269C0000BF7B68012283F83D207B68002283F811
:1026AC003C20002318461037BD4680BD80B483B053
:1026BC0000AF786000BF0C37BD4680BC704780B45B
:1026CC0083B000AF786000BF0C37BD4680BC70474C
:1026DC0080B483B000AF786000BF0C37BD4680BCBF
:1026EC00704780B483B000AF786000BF0C37BD4634
:1026FC0080BC704780B485B000AF786039607B686F
:10270C001B68FB607B68254A934207D07B68B3F15A
:10271C00804F03D07B68224A934208D1FB6823F098
:10272C007003FB603B685B68FA681343FB607B6873
:10273C001A4A934207D07B68B3F1804F03D07B6871
:10274C00174A934208D1FB6823F44073FB603B6843
:10275C00DB68FA681343FB60FB6823F080023B687C
:10276C005B691343FB607B68FA681A603B689A6884
:10277C007B68DA623B681A687B689A627B68074AF6
:10278C00934203D13B681A697B681A637B68012208
:10279C005A6100BF1437BD4680BC7047002C014005
:1027AC000004004080B487B000AFF860B9607A6074
:1027BC00FB681B6A7B61FB681B6A23F00102FB68E8
:1027CC001A62FB689B693B613B6923F0F0033B6138
:1027DC007B681B013A6913433B617B6923F00A0355
:1027EC007B617A69BB6813437B61FB683A699A61C8
:1027FC00FB687A691A6200BF1C37BD4680BC704703
:10280C0080B487B000AFF860B9607A60FB681B6A6F
:10281C0023F01002FB681A62FB689B697B61FB6802
:10282C001B6A3B617B6923F470437B617B681B03F0
:10283C007A6913437B613B6923F0A0033B61BB685E
:10284C001B013A6913433B61FB687A699A61FB6827
:10285C003A691A6200BF1C37BD4680BC704780B411
:10286C0085B000AF786039607B689B68FB60FB6863
:10287C0023F07003FB603A68FB68134343F00703D3
:10288C00FB607B68FA689A6000BF1437BD4680BC59
:10289C00704780B487B000AFF860B9607A603B6075
:1028AC00FB689B687B617B6923F47F437B613B689E
:1028BC001A027B681A43BB6813437A6913437B6122
:1028CC00FB687A699A6000BF1C37BD4680BC7047B4
:1028DC0080B485B000AF786039607B6893F83C3089
:1028EC00012B01D1022341E07B68012283F83C20BB
:1028FC007B68022283F83D207B681B685B68FB6069
:10290C007B681B689B68BB60FB6823F07003FB60F3
:10291C003B681B68FA681343FB607B681B68FA68AA
:10292C005A607B681B68144A934209D07B681B6809
:10293C00B3F1804F04D07B681B68104A93420CD1D2
:10294C00BB6823F08003BB603B685B68BA681343C9
:10295C00BB607B681B68BA689A607B68012283F84D
:10296C003D207B68002283F83C2000231846143756
:10297C00BD4680BC704700BF002C014000040040E5
:10298C0080B483B000AF786000BF0C37BD4680BC0C
:10299C00704780B483B000AF786000BF0C37BD4681
:1029AC0080BC704770B500260C4D0D4C641BA410F8
:1029BC00A64209D100F022F800260A4D0A4C641BED
:1029CC00A410A64205D170BD55F8043B98470136BA
:1029DC00EEE755F8043B98470136F2E7402A000829
:1029EC00402A0008402A0008442A000803460244F2
:1029FC00934200D1704703F8011BF9E7F8B500BF0B
:102A0C00F8BC08BC9E467047F8B500BFF8BC08BCC3
:042A1C009E4670471B
:102A200002030405060708090A0B0C0D0E0F10100F
:102A3000000000000000000001020304060708096E
:042A40003101000858
:042A44000D01000878
:102A4800FFFFFFFF05000000020000000300000078
:102A58000100000001000000014F12064C24200F65
:102A6800000400000024F400010000001000000031
:042A78000100000059
:0400000508001321BB
:00000001FF
